{
  "_format": "hh-sol-artifact-1",
  "contractName": "Infinity",
  "sourceName": "contracts/Infinity.sol",
  "abi": [
    {
      "inputs": [],
      "stateMutability": "nonpayable",
      "type": "constructor"
    },
    {
      "anonymous": false,
      "inputs": [
        {
          "indexed": true,
          "internalType": "address",
          "name": "owner",
          "type": "address"
        },
        {
          "indexed": true,
          "internalType": "address",
          "name": "spender",
          "type": "address"
        },
        {
          "indexed": false,
          "internalType": "uint256",
          "name": "value",
          "type": "uint256"
        }
      ],
      "name": "Approval",
      "type": "event"
    },
    {
      "anonymous": false,
      "inputs": [
        {
          "indexed": true,
          "internalType": "address",
          "name": "delegator",
          "type": "address"
        },
        {
          "indexed": true,
          "internalType": "address",
          "name": "fromDelegate",
          "type": "address"
        },
        {
          "indexed": true,
          "internalType": "address",
          "name": "toDelegate",
          "type": "address"
        }
      ],
      "name": "DelegateChanged",
      "type": "event"
    },
    {
      "anonymous": false,
      "inputs": [
        {
          "indexed": true,
          "internalType": "address",
          "name": "delegate",
          "type": "address"
        },
        {
          "indexed": false,
          "internalType": "uint256",
          "name": "previousBalance",
          "type": "uint256"
        },
        {
          "indexed": false,
          "internalType": "uint256",
          "name": "newBalance",
          "type": "uint256"
        }
      ],
      "name": "DelegateVotesChanged",
      "type": "event"
    },
    {
      "anonymous": false,
      "inputs": [
        {
          "indexed": true,
          "internalType": "address",
          "name": "previousOwner",
          "type": "address"
        },
        {
          "indexed": true,
          "internalType": "address",
          "name": "newOwner",
          "type": "address"
        }
      ],
      "name": "OwnershipTransferred",
      "type": "event"
    },
    {
      "anonymous": false,
      "inputs": [
        {
          "indexed": false,
          "internalType": "address",
          "name": "account",
          "type": "address"
        }
      ],
      "name": "Paused",
      "type": "event"
    },
    {
      "anonymous": false,
      "inputs": [
        {
          "indexed": true,
          "internalType": "address",
          "name": "from",
          "type": "address"
        },
        {
          "indexed": true,
          "internalType": "address",
          "name": "to",
          "type": "address"
        },
        {
          "indexed": false,
          "internalType": "uint256",
          "name": "value",
          "type": "uint256"
        }
      ],
      "name": "Transfer",
      "type": "event"
    },
    {
      "anonymous": false,
      "inputs": [
        {
          "indexed": false,
          "internalType": "address",
          "name": "account",
          "type": "address"
        }
      ],
      "name": "Unpaused",
      "type": "event"
    },
    {
      "inputs": [],
      "name": "DOMAIN_SEPARATOR",
      "outputs": [
        {
          "internalType": "bytes32",
          "name": "",
          "type": "bytes32"
        }
      ],
      "stateMutability": "view",
      "type": "function"
    },
    {
      "inputs": [],
      "name": "_owner",
      "outputs": [
        {
          "internalType": "address",
          "name": "",
          "type": "address"
        }
      ],
      "stateMutability": "view",
      "type": "function"
    },
    {
      "inputs": [
        {
          "internalType": "address",
          "name": "owner",
          "type": "address"
        },
        {
          "internalType": "address",
          "name": "spender",
          "type": "address"
        }
      ],
      "name": "allowance",
      "outputs": [
        {
          "internalType": "uint256",
          "name": "",
          "type": "uint256"
        }
      ],
      "stateMutability": "view",
      "type": "function"
    },
    {
      "inputs": [
        {
          "internalType": "address",
          "name": "spender",
          "type": "address"
        },
        {
          "internalType": "uint256",
          "name": "amount",
          "type": "uint256"
        }
      ],
      "name": "approve",
      "outputs": [
        {
          "internalType": "bool",
          "name": "",
          "type": "bool"
        }
      ],
      "stateMutability": "nonpayable",
      "type": "function"
    },
    {
      "inputs": [
        {
          "internalType": "address",
          "name": "account",
          "type": "address"
        }
      ],
      "name": "balanceOf",
      "outputs": [
        {
          "internalType": "uint256",
          "name": "",
          "type": "uint256"
        }
      ],
      "stateMutability": "view",
      "type": "function"
    },
    {
      "inputs": [
        {
          "internalType": "uint256",
          "name": "amount",
          "type": "uint256"
        }
      ],
      "name": "burn",
      "outputs": [],
      "stateMutability": "nonpayable",
      "type": "function"
    },
    {
      "inputs": [
        {
          "internalType": "address",
          "name": "to",
          "type": "address"
        },
        {
          "internalType": "uint256",
          "name": "amount",
          "type": "uint256"
        }
      ],
      "name": "burn",
      "outputs": [],
      "stateMutability": "nonpayable",
      "type": "function"
    },
    {
      "inputs": [
        {
          "internalType": "address",
          "name": "account",
          "type": "address"
        },
        {
          "internalType": "uint256",
          "name": "amount",
          "type": "uint256"
        }
      ],
      "name": "burnFrom",
      "outputs": [],
      "stateMutability": "nonpayable",
      "type": "function"
    },
    {
      "inputs": [
        {
          "internalType": "address",
          "name": "account",
          "type": "address"
        },
        {
          "internalType": "uint32",
          "name": "pos",
          "type": "uint32"
        }
      ],
      "name": "checkpoints",
      "outputs": [
        {
          "components": [
            {
              "internalType": "uint32",
              "name": "fromBlock",
              "type": "uint32"
            },
            {
              "internalType": "uint224",
              "name": "votes",
              "type": "uint224"
            }
          ],
          "internalType": "struct ERC20Votes.Checkpoint",
          "name": "",
          "type": "tuple"
        }
      ],
      "stateMutability": "view",
      "type": "function"
    },
    {
      "inputs": [],
      "name": "decimals",
      "outputs": [
        {
          "internalType": "uint8",
          "name": "",
          "type": "uint8"
        }
      ],
      "stateMutability": "view",
      "type": "function"
    },
    {
      "inputs": [
        {
          "internalType": "address",
          "name": "spender",
          "type": "address"
        },
        {
          "internalType": "uint256",
          "name": "subtractedValue",
          "type": "uint256"
        }
      ],
      "name": "decreaseAllowance",
      "outputs": [
        {
          "internalType": "bool",
          "name": "",
          "type": "bool"
        }
      ],
      "stateMutability": "nonpayable",
      "type": "function"
    },
    {
      "inputs": [
        {
          "internalType": "address",
          "name": "delegatee",
          "type": "address"
        }
      ],
      "name": "delegate",
      "outputs": [],
      "stateMutability": "nonpayable",
      "type": "function"
    },
    {
      "inputs": [
        {
          "internalType": "address",
          "name": "delegatee",
          "type": "address"
        },
        {
          "internalType": "uint256",
          "name": "nonce",
          "type": "uint256"
        },
        {
          "internalType": "uint256",
          "name": "expiry",
          "type": "uint256"
        },
        {
          "internalType": "uint8",
          "name": "v",
          "type": "uint8"
        },
        {
          "internalType": "bytes32",
          "name": "r",
          "type": "bytes32"
        },
        {
          "internalType": "bytes32",
          "name": "s",
          "type": "bytes32"
        }
      ],
      "name": "delegateBySig",
      "outputs": [],
      "stateMutability": "nonpayable",
      "type": "function"
    },
    {
      "inputs": [
        {
          "internalType": "address",
          "name": "account",
          "type": "address"
        }
      ],
      "name": "delegates",
      "outputs": [
        {
          "internalType": "address",
          "name": "",
          "type": "address"
        }
      ],
      "stateMutability": "view",
      "type": "function"
    },
    {
      "inputs": [
        {
          "internalType": "uint256",
          "name": "blockNumber",
          "type": "uint256"
        }
      ],
      "name": "getPastTotalSupply",
      "outputs": [
        {
          "internalType": "uint256",
          "name": "",
          "type": "uint256"
        }
      ],
      "stateMutability": "view",
      "type": "function"
    },
    {
      "inputs": [
        {
          "internalType": "address",
          "name": "account",
          "type": "address"
        },
        {
          "internalType": "uint256",
          "name": "blockNumber",
          "type": "uint256"
        }
      ],
      "name": "getPastVotes",
      "outputs": [
        {
          "internalType": "uint256",
          "name": "",
          "type": "uint256"
        }
      ],
      "stateMutability": "view",
      "type": "function"
    },
    {
      "inputs": [
        {
          "internalType": "address",
          "name": "account",
          "type": "address"
        }
      ],
      "name": "getVotes",
      "outputs": [
        {
          "internalType": "uint256",
          "name": "",
          "type": "uint256"
        }
      ],
      "stateMutability": "view",
      "type": "function"
    },
    {
      "inputs": [
        {
          "internalType": "address",
          "name": "spender",
          "type": "address"
        },
        {
          "internalType": "uint256",
          "name": "addedValue",
          "type": "uint256"
        }
      ],
      "name": "increaseAllowance",
      "outputs": [
        {
          "internalType": "bool",
          "name": "",
          "type": "bool"
        }
      ],
      "stateMutability": "nonpayable",
      "type": "function"
    },
    {
      "inputs": [
        {
          "internalType": "address",
          "name": "to",
          "type": "address"
        },
        {
          "internalType": "uint256",
          "name": "amount",
          "type": "uint256"
        }
      ],
      "name": "mint",
      "outputs": [],
      "stateMutability": "nonpayable",
      "type": "function"
    },
    {
      "inputs": [],
      "name": "name",
      "outputs": [
        {
          "internalType": "string",
          "name": "",
          "type": "string"
        }
      ],
      "stateMutability": "view",
      "type": "function"
    },
    {
      "inputs": [
        {
          "internalType": "address",
          "name": "owner",
          "type": "address"
        }
      ],
      "name": "nonces",
      "outputs": [
        {
          "internalType": "uint256",
          "name": "",
          "type": "uint256"
        }
      ],
      "stateMutability": "view",
      "type": "function"
    },
    {
      "inputs": [
        {
          "internalType": "address",
          "name": "account",
          "type": "address"
        }
      ],
      "name": "numCheckpoints",
      "outputs": [
        {
          "internalType": "uint32",
          "name": "",
          "type": "uint32"
        }
      ],
      "stateMutability": "view",
      "type": "function"
    },
    {
      "inputs": [],
      "name": "owner",
      "outputs": [
        {
          "internalType": "address",
          "name": "",
          "type": "address"
        }
      ],
      "stateMutability": "view",
      "type": "function"
    },
    {
      "inputs": [],
      "name": "pause",
      "outputs": [],
      "stateMutability": "nonpayable",
      "type": "function"
    },
    {
      "inputs": [],
      "name": "paused",
      "outputs": [
        {
          "internalType": "bool",
          "name": "",
          "type": "bool"
        }
      ],
      "stateMutability": "view",
      "type": "function"
    },
    {
      "inputs": [
        {
          "internalType": "address",
          "name": "owner",
          "type": "address"
        },
        {
          "internalType": "address",
          "name": "spender",
          "type": "address"
        },
        {
          "internalType": "uint256",
          "name": "value",
          "type": "uint256"
        },
        {
          "internalType": "uint256",
          "name": "deadline",
          "type": "uint256"
        },
        {
          "internalType": "uint8",
          "name": "v",
          "type": "uint8"
        },
        {
          "internalType": "bytes32",
          "name": "r",
          "type": "bytes32"
        },
        {
          "internalType": "bytes32",
          "name": "s",
          "type": "bytes32"
        }
      ],
      "name": "permit",
      "outputs": [],
      "stateMutability": "nonpayable",
      "type": "function"
    },
    {
      "inputs": [],
      "name": "renounceOwnership",
      "outputs": [],
      "stateMutability": "nonpayable",
      "type": "function"
    },
    {
      "inputs": [],
      "name": "symbol",
      "outputs": [
        {
          "internalType": "string",
          "name": "",
          "type": "string"
        }
      ],
      "stateMutability": "view",
      "type": "function"
    },
    {
      "inputs": [],
      "name": "totalSupply",
      "outputs": [
        {
          "internalType": "uint256",
          "name": "",
          "type": "uint256"
        }
      ],
      "stateMutability": "view",
      "type": "function"
    },
    {
      "inputs": [
        {
          "internalType": "address",
          "name": "to",
          "type": "address"
        },
        {
          "internalType": "uint256",
          "name": "amount",
          "type": "uint256"
        }
      ],
      "name": "transfer",
      "outputs": [
        {
          "internalType": "bool",
          "name": "",
          "type": "bool"
        }
      ],
      "stateMutability": "nonpayable",
      "type": "function"
    },
    {
      "inputs": [
        {
          "internalType": "address",
          "name": "from",
          "type": "address"
        },
        {
          "internalType": "address",
          "name": "to",
          "type": "address"
        },
        {
          "internalType": "uint256",
          "name": "amount",
          "type": "uint256"
        }
      ],
      "name": "transferFrom",
      "outputs": [
        {
          "internalType": "bool",
          "name": "",
          "type": "bool"
        }
      ],
      "stateMutability": "nonpayable",
      "type": "function"
    },
    {
      "inputs": [
        {
          "internalType": "address",
          "name": "newOwner",
          "type": "address"
        }
      ],
      "name": "transferOwnership",
      "outputs": [],
      "stateMutability": "nonpayable",
      "type": "function"
    },
    {
      "inputs": [],
      "name": "unpause",
      "outputs": [],
      "stateMutability": "nonpayable",
      "type": "function"
    }
  ],
  "bytecode": "0x6101406040523480156200001257600080fd5b506040518060400160405280600881526020017f496e66696e697479000000000000000000000000000000000000000000000000815250806040518060400160405280600181526020017f31000000000000000000000000000000000000000000000000000000000000008152506040518060400160405280600881526020017f496e66696e6974790000000000000000000000000000000000000000000000008152506040518060400160405280600381526020017f494e4600000000000000000000000000000000000000000000000000000000008152508160039081620000fd9190620005cb565b5080600490816200010f9190620005cb565b5050506000600560006101000a81548160ff0219169083151502179055506200014d620001416200024760201b60201c565b6200024f60201b60201c565b60008280519060200120905060008280519060200120905060007f8b73c3c69bb8fe3d512ecc4cf759cc79239f7b179b0ffacaa9a75d522b39400f90508260e081815250508161010081815250504660a08181525050620001b68184846200031560201b60201c565b608081815250503073ffffffffffffffffffffffffffffffffffffffff1660c08173ffffffffffffffffffffffffffffffffffffffff168152505080610120818152505050505050505033600b60006101000a81548173ffffffffffffffffffffffffffffffffffffffff021916908373ffffffffffffffffffffffffffffffffffffffff16021790555062000780565b600033905090565b6000600560019054906101000a900473ffffffffffffffffffffffffffffffffffffffff16905081600560016101000a81548173ffffffffffffffffffffffffffffffffffffffff021916908373ffffffffffffffffffffffffffffffffffffffff1602179055508173ffffffffffffffffffffffffffffffffffffffff168173ffffffffffffffffffffffffffffffffffffffff167f8be0079c531659141344cd1fd0a4f28419497f9722a3daafe3b4186f6b6457e060405160405180910390a35050565b600083838346306040516020016200033295949392919062000723565b6040516020818303038152906040528051906020012090509392505050565b600081519050919050565b7f4e487b7100000000000000000000000000000000000000000000000000000000600052604160045260246000fd5b7f4e487b7100000000000000000000000000000000000000000000000000000000600052602260045260246000fd5b60006002820490506001821680620003d357607f821691505b602082108103620003e957620003e86200038b565b5b50919050565b60008190508160005260206000209050919050565b60006020601f8301049050919050565b600082821b905092915050565b600060088302620004537fffffffffffffffffffffffffffffffffffffffffffffffffffffffffffffffff8262000414565b6200045f868362000414565b95508019841693508086168417925050509392505050565b6000819050919050565b6000819050919050565b6000620004ac620004a6620004a08462000477565b62000481565b62000477565b9050919050565b6000819050919050565b620004c8836200048b565b620004e0620004d782620004b3565b84845462000421565b825550505050565b600090565b620004f7620004e8565b62000504818484620004bd565b505050565b5b818110156200052c5762000520600082620004ed565b6001810190506200050a565b5050565b601f8211156200057b576200054581620003ef565b620005508462000404565b8101602085101562000560578190505b620005786200056f8562000404565b83018262000509565b50505b505050565b600082821c905092915050565b6000620005a06000198460080262000580565b1980831691505092915050565b6000620005bb83836200058d565b9150826002028217905092915050565b620005d68262000351565b67ffffffffffffffff811115620005f257620005f16200035c565b5b620005fe8254620003ba565b6200060b82828562000530565b600060209050601f8311600181146200064357600084156200062e578287015190505b6200063a8582620005ad565b865550620006aa565b601f1984166200065386620003ef565b60005b828110156200067d5784890151825560018201915060208501945060208101905062000656565b868310156200069d578489015162000699601f8916826200058d565b8355505b6001600288020188555050505b505050505050565b6000819050919050565b620006c781620006b2565b82525050565b620006d88162000477565b82525050565b600073ffffffffffffffffffffffffffffffffffffffff82169050919050565b60006200070b82620006de565b9050919050565b6200071d81620006fe565b82525050565b600060a0820190506200073a6000830188620006bc565b620007496020830187620006bc565b620007586040830186620006bc565b620007676060830185620006cd565b62000776608083018462000712565b9695505050505050565b60805160a05160c05160e0516101005161012051614369620007d0600039600061174b0152600061178d0152600061176c015260006116a1015260006116f70152600061172001526143696000f3fe608060405234801561001057600080fd5b50600436106101fb5760003560e01c8063715018a61161011a5780639dc29fac116100ad578063c3cda5201161007c578063c3cda520146105da578063d505accf146105f6578063dd62ed3e14610612578063f1127ed814610642578063f2fde38b14610672576101fb565b80639dc29fac14610540578063a457c2d71461055c578063a9059cbb1461058c578063b2bdfa7b146105bc576101fb565b80638da5cb5b116100e95780638da5cb5b146104a45780638e539e8c146104c257806395d89b41146104f25780639ab24eb014610510576101fb565b8063715018a61461044457806379cc67901461044e5780637ecebe001461046a5780638456cb591461049a576101fb565b80633f4ba83a116101925780635c19a95c116101615780635c19a95c146103aa5780635c975abb146103c65780636fcfff45146103e457806370a0823114610414576101fb565b80633f4ba83a1461033857806340c10f191461034257806342966c681461035e578063587cde1e1461037a576101fb565b8063313ce567116101ce578063313ce5671461029c5780633644e515146102ba57806339509351146102d85780633a46b1a814610308576101fb565b806306fdde0314610200578063095ea7b31461021e57806318160ddd1461024e57806323b872dd1461026c575b600080fd5b61020861068e565b6040516102159190612d54565b60405180910390f35b61023860048036038101906102339190612e0f565b610720565b6040516102459190612e6a565b60405180910390f35b610256610743565b6040516102639190612e94565b60405180910390f35b61028660048036038101906102819190612eaf565b61074d565b6040516102939190612e6a565b60405180910390f35b6102a461077c565b6040516102b19190612f1e565b60405180910390f35b6102c2610785565b6040516102cf9190612f52565b60405180910390f35b6102f260048036038101906102ed9190612e0f565b610794565b6040516102ff9190612e6a565b60405180910390f35b610322600480360381019061031d9190612e0f565b6107cb565b60405161032f9190612e94565b60405180910390f35b61034061085f565b005b61035c60048036038101906103579190612e0f565b610871565b005b61037860048036038101906103739190612f6d565b61088f565b005b610394600480360381019061038f9190612f9a565b6108a3565b6040516103a19190612fd6565b60405180910390f35b6103c460048036038101906103bf9190612f9a565b61090c565b005b6103ce610920565b6040516103db9190612e6a565b60405180910390f35b6103fe60048036038101906103f99190612f9a565b610937565b60405161040b9190613010565b60405180910390f35b61042e60048036038101906104299190612f9a565b61098b565b60405161043b9190612e94565b60405180910390f35b61044c6109d3565b005b61046860048036038101906104639190612e0f565b6109e7565b005b610484600480360381019061047f9190612f9a565b610a07565b6040516104919190612e94565b60405180910390f35b6104a2610a57565b005b6104ac610a69565b6040516104b99190612fd6565b60405180910390f35b6104dc60048036038101906104d79190612f6d565b610a93565b6040516104e99190612e94565b60405180910390f35b6104fa610ae9565b6040516105079190612d54565b60405180910390f35b61052a60048036038101906105259190612f9a565b610b7b565b6040516105379190612e94565b60405180910390f35b61055a60048036038101906105559190612e0f565b610c8c565b005b61057660048036038101906105719190612e0f565b610caa565b6040516105839190612e6a565b60405180910390f35b6105a660048036038101906105a19190612e0f565b610d21565b6040516105b39190612e6a565b60405180910390f35b6105c4610d44565b6040516105d19190612fd6565b60405180910390f35b6105f460048036038101906105ef9190613083565b610d6a565b005b610610600480360381019061060b9190613110565b610e6e565b005b61062c600480360381019061062791906131b2565b610fb0565b6040516106399190612e94565b60405180910390f35b61065c6004803603810190610657919061321e565b611037565b60405161066991906132d3565b60405180910390f35b61068c60048036038101906106879190612f9a565b611147565b005b60606003805461069d9061331d565b80601f01602080910402602001604051908101604052809291908181526020018280546106c99061331d565b80156107165780601f106106eb57610100808354040283529160200191610716565b820191906000526020600020905b8154815290600101906020018083116106f957829003601f168201915b5050505050905090565b60008061072b6111ca565b90506107388185856111d2565b600191505092915050565b6000600254905090565b6000806107586111ca565b905061076585828561139b565b610770858585611427565b60019150509392505050565b60006012905090565b600061078f61169d565b905090565b60008061079f6111ca565b90506107c08185856107b18589610fb0565b6107bb919061337d565b6111d2565b600191505092915050565b600043821061080f576040517f08c379a0000000000000000000000000000000000000000000000000000000008152600401610806906133fd565b60405180910390fd5b610857600960008573ffffffffffffffffffffffffffffffffffffffff1673ffffffffffffffffffffffffffffffffffffffff168152602001908152602001600020836117b7565b905092915050565b610867611908565b61086f611986565b565b610879611908565b6108816119e9565b61088b8282611a33565b5050565b6108a061089a6111ca565b82611a41565b50565b6000600860008373ffffffffffffffffffffffffffffffffffffffff1673ffffffffffffffffffffffffffffffffffffffff16815260200190815260200160002060009054906101000a900473ffffffffffffffffffffffffffffffffffffffff169050919050565b61091d6109176111ca565b82611a4f565b50565b6000600560009054906101000a900460ff16905090565b6000610984600960008473ffffffffffffffffffffffffffffffffffffffff1673ffffffffffffffffffffffffffffffffffffffff16815260200190815260200160002080549050611b69565b9050919050565b60008060008373ffffffffffffffffffffffffffffffffffffffff1673ffffffffffffffffffffffffffffffffffffffff168152602001908152602001600020549050919050565b6109db611908565b6109e56000611bbc565b565b6109f9826109f36111ca565b8361139b565b610a038282611a41565b5050565b6000610a50600660008473ffffffffffffffffffffffffffffffffffffffff1673ffffffffffffffffffffffffffffffffffffffff168152602001908152602001600020611c82565b9050919050565b610a5f611908565b610a67611c90565b565b6000600560019054906101000a900473ffffffffffffffffffffffffffffffffffffffff16905090565b6000438210610ad7576040517f08c379a0000000000000000000000000000000000000000000000000000000008152600401610ace906133fd565b60405180910390fd5b610ae2600a836117b7565b9050919050565b606060048054610af89061331d565b80601f0160208091040260200160405190810160405280929190818152602001828054610b249061331d565b8015610b715780601f10610b4657610100808354040283529160200191610b71565b820191906000526020600020905b815481529060010190602001808311610b5457829003601f168201915b5050505050905090565b600080600960008473ffffffffffffffffffffffffffffffffffffffff1673ffffffffffffffffffffffffffffffffffffffff16815260200190815260200160002080549050905060008114610c6357600960008473ffffffffffffffffffffffffffffffffffffffff1673ffffffffffffffffffffffffffffffffffffffff168152602001908152602001600020600182610c17919061341d565b81548110610c2857610c27613451565b5b9060005260206000200160000160049054906101000a90047bffffffffffffffffffffffffffffffffffffffffffffffffffffffff16610c66565b60005b7bffffffffffffffffffffffffffffffffffffffffffffffffffffffff16915050919050565b610c94611908565b610c9c6119e9565b610ca68282611a41565b5050565b600080610cb56111ca565b90506000610cc38286610fb0565b905083811015610d08576040517f08c379a0000000000000000000000000000000000000000000000000000000008152600401610cff906134f2565b60405180910390fd5b610d1582868684036111d2565b60019250505092915050565b600080610d2c6111ca565b9050610d39818585611427565b600191505092915050565b600b60009054906101000a900473ffffffffffffffffffffffffffffffffffffffff1681565b83421115610dad576040517f08c379a0000000000000000000000000000000000000000000000000000000008152600401610da49061355e565b60405180910390fd5b6000610e0f610e077fe48329057bfd03d55e49b547132e39cffd9c1820ad7b9d4c5307691425d15adf898989604051602001610dec949392919061357e565b60405160208183030381529060405280519060200120611cf3565b858585611d0d565b9050610e1a81611d38565b8614610e5b576040517f08c379a0000000000000000000000000000000000000000000000000000000008152600401610e529061360f565b60405180910390fd5b610e658188611a4f565b50505050505050565b83421115610eb1576040517f08c379a0000000000000000000000000000000000000000000000000000000008152600401610ea89061367b565b60405180910390fd5b60007f6e71edae12b1b97f4d1f60370fef10105fa2faae0126114a169c64845d6126c9888888610ee08c611d38565b89604051602001610ef69695949392919061369b565b6040516020818303038152906040528051906020012090506000610f1982611cf3565b90506000610f2982878787611d0d565b90508973ffffffffffffffffffffffffffffffffffffffff168173ffffffffffffffffffffffffffffffffffffffff1614610f99576040517f08c379a0000000000000000000000000000000000000000000000000000000008152600401610f9090613748565b60405180910390fd5b610fa48a8a8a6111d2565b50505050505050505050565b6000600160008473ffffffffffffffffffffffffffffffffffffffff1673ffffffffffffffffffffffffffffffffffffffff16815260200190815260200160002060008373ffffffffffffffffffffffffffffffffffffffff1673ffffffffffffffffffffffffffffffffffffffff16815260200190815260200160002054905092915050565b61103f612c86565b600960008473ffffffffffffffffffffffffffffffffffffffff1673ffffffffffffffffffffffffffffffffffffffff1681526020019081526020016000208263ffffffff168154811061109657611095613451565b5b906000526020600020016040518060400160405290816000820160009054906101000a900463ffffffff1663ffffffff1663ffffffff1681526020016000820160049054906101000a90047bffffffffffffffffffffffffffffffffffffffffffffffffffffffff167bffffffffffffffffffffffffffffffffffffffffffffffffffffffff167bffffffffffffffffffffffffffffffffffffffffffffffffffffffff1681525050905092915050565b61114f611908565b600073ffffffffffffffffffffffffffffffffffffffff168173ffffffffffffffffffffffffffffffffffffffff16036111be576040517f08c379a00000000000000000000000000000000000000000000000000000000081526004016111b5906137da565b60405180910390fd5b6111c781611bbc565b50565b600033905090565b600073ffffffffffffffffffffffffffffffffffffffff168373ffffffffffffffffffffffffffffffffffffffff1603611241576040517f08c379a00000000000000000000000000000000000000000000000000000000081526004016112389061386c565b60405180910390fd5b600073ffffffffffffffffffffffffffffffffffffffff168273ffffffffffffffffffffffffffffffffffffffff16036112b0576040517f08c379a00000000000000000000000000000000000000000000000000000000081526004016112a7906138fe565b60405180910390fd5b80600160008573ffffffffffffffffffffffffffffffffffffffff1673ffffffffffffffffffffffffffffffffffffffff16815260200190815260200160002060008473ffffffffffffffffffffffffffffffffffffffff1673ffffffffffffffffffffffffffffffffffffffff168152602001908152602001600020819055508173ffffffffffffffffffffffffffffffffffffffff168373ffffffffffffffffffffffffffffffffffffffff167f8c5be1e5ebec7d5bd14f71427d1e84f3dd0314c0f7b2291e5b200ac8c7c3b9258360405161138e9190612e94565b60405180910390a3505050565b60006113a78484610fb0565b90507fffffffffffffffffffffffffffffffffffffffffffffffffffffffffffffffff81146114215781811015611413576040517f08c379a000000000000000000000000000000000000000000000000000000000815260040161140a9061396a565b60405180910390fd5b61142084848484036111d2565b5b50505050565b600073ffffffffffffffffffffffffffffffffffffffff168373ffffffffffffffffffffffffffffffffffffffff1603611496576040517f08c379a000000000000000000000000000000000000000000000000000000000815260040161148d906139fc565b60405180910390fd5b600073ffffffffffffffffffffffffffffffffffffffff168273ffffffffffffffffffffffffffffffffffffffff1603611505576040517f08c379a00000000000000000000000000000000000000000000000000000000081526004016114fc90613a8e565b60405180910390fd5b611510838383611d96565b60008060008573ffffffffffffffffffffffffffffffffffffffff1673ffffffffffffffffffffffffffffffffffffffff16815260200190815260200160002054905081811015611596576040517f08c379a000000000000000000000000000000000000000000000000000000000815260040161158d90613b20565b60405180910390fd5b8181036000808673ffffffffffffffffffffffffffffffffffffffff1673ffffffffffffffffffffffffffffffffffffffff16815260200190815260200160002081905550816000808573ffffffffffffffffffffffffffffffffffffffff1673ffffffffffffffffffffffffffffffffffffffff168152602001908152602001600020600082825401925050819055508273ffffffffffffffffffffffffffffffffffffffff168473ffffffffffffffffffffffffffffffffffffffff167fddf252ad1be2c89b69c2b068fc378daa952ba7f163c4a11628f55a4df523b3ef846040516116849190612e94565b60405180910390a3611697848484611dae565b50505050565b60007f000000000000000000000000000000000000000000000000000000000000000073ffffffffffffffffffffffffffffffffffffffff163073ffffffffffffffffffffffffffffffffffffffff1614801561171957507f000000000000000000000000000000000000000000000000000000000000000046145b15611746577f000000000000000000000000000000000000000000000000000000000000000090506117b4565b6117b17f00000000000000000000000000000000000000000000000000000000000000007f00000000000000000000000000000000000000000000000000000000000000007f0000000000000000000000000000000000000000000000000000000000000000611dbe565b90505b90565b60008083805490509050600080829050600583111561182d5760006117db84611df8565b846117e6919061341d565b9050856117f38883611ef1565b60000160009054906101000a900463ffffffff1663ffffffff16111561181b5780915061182b565b600181611828919061337d565b92505b505b5b8082101561188d5760006118428383611f06565b90508561184f8883611ef1565b60000160009054906101000a900463ffffffff1663ffffffff16111561187757809150611887565b600181611884919061337d565b92505b5061182e565b600081146118dc576118ab866001836118a6919061341d565b611ef1565b60000160049054906101000a90047bffffffffffffffffffffffffffffffffffffffffffffffffffffffff166118df565b60005b7bffffffffffffffffffffffffffffffffffffffffffffffffffffffff16935050505092915050565b6119106111ca565b73ffffffffffffffffffffffffffffffffffffffff1661192e610a69565b73ffffffffffffffffffffffffffffffffffffffff1614611984576040517f08c379a000000000000000000000000000000000000000000000000000000000815260040161197b90613b8c565b60405180910390fd5b565b61198e611f2c565b6000600560006101000a81548160ff0219169083151502179055507f5db9ee0a495bf2e6ff9c91a7834c1ba4fdd244a5e8aa4e537bd38aeae4b073aa6119d26111ca565b6040516119df9190612fd6565b60405180910390a1565b6119f1610920565b15611a31576040517f08c379a0000000000000000000000000000000000000000000000000000000008152600401611a2890613bf8565b60405180910390fd5b565b611a3d8282611f75565b5050565b611a4b8282612002565b5050565b6000611a5a836108a3565b90506000611a678461098b565b905082600860008673ffffffffffffffffffffffffffffffffffffffff1673ffffffffffffffffffffffffffffffffffffffff16815260200190815260200160002060006101000a81548173ffffffffffffffffffffffffffffffffffffffff021916908373ffffffffffffffffffffffffffffffffffffffff1602179055508273ffffffffffffffffffffffffffffffffffffffff168273ffffffffffffffffffffffffffffffffffffffff168573ffffffffffffffffffffffffffffffffffffffff167f3134e8a2e6d97e929a7e54011ea5485d7d196dd5f0ba4d4ef95803e8e3fc257f60405160405180910390a4611b63828483612020565b50505050565b600063ffffffff8016821115611bb4576040517f08c379a0000000000000000000000000000000000000000000000000000000008152600401611bab90613c8a565b60405180910390fd5b819050919050565b6000600560019054906101000a900473ffffffffffffffffffffffffffffffffffffffff16905081600560016101000a81548173ffffffffffffffffffffffffffffffffffffffff021916908373ffffffffffffffffffffffffffffffffffffffff1602179055508173ffffffffffffffffffffffffffffffffffffffff168173ffffffffffffffffffffffffffffffffffffffff167f8be0079c531659141344cd1fd0a4f28419497f9722a3daafe3b4186f6b6457e060405160405180910390a35050565b600081600001549050919050565b611c986119e9565b6001600560006101000a81548160ff0219169083151502179055507f62e78cea01bee320cd4e420270b5ea74000d11b0c9f74754ebdbfc544b05a258611cdc6111ca565b604051611ce99190612fd6565b60405180910390a1565b6000611d06611d0061169d565b83612219565b9050919050565b6000806000611d1e8787878761224c565b91509150611d2b8161232e565b8192505050949350505050565b600080600660008473ffffffffffffffffffffffffffffffffffffffff1673ffffffffffffffffffffffffffffffffffffffff1681526020019081526020016000209050611d8581611c82565b9150611d9081612494565b50919050565b611d9e6119e9565b611da98383836124aa565b505050565b611db98383836124af565b505050565b60008383834630604051602001611dd9959493929190613caa565b6040516020818303038152906040528051906020012090509392505050565b6000808203611e0a5760009050611eec565b60006001611e17846124da565b901c6001901b90506001818481611e3157611e30613cfd565b5b048201901c90506001818481611e4a57611e49613cfd565b5b048201901c90506001818481611e6357611e62613cfd565b5b048201901c90506001818481611e7c57611e7b613cfd565b5b048201901c90506001818481611e9557611e94613cfd565b5b048201901c90506001818481611eae57611ead613cfd565b5b048201901c90506001818481611ec757611ec6613cfd565b5b048201901c9050611ee881828581611ee257611ee1613cfd565b5b046125bb565b9150505b919050565b60008260005281602060002001905092915050565b60006002828418611f179190613d2c565b828416611f24919061337d565b905092915050565b611f34610920565b611f73576040517f08c379a0000000000000000000000000000000000000000000000000000000008152600401611f6a90613da9565b60405180910390fd5b565b611f7f82826125d4565b611f8761272a565b7bffffffffffffffffffffffffffffffffffffffffffffffffffffffff16611fad610743565b1115611fee576040517f08c379a0000000000000000000000000000000000000000000000000000000008152600401611fe590613e3b565b60405180910390fd5b611ffc600a61274e83612764565b50505050565b61200c8282612a33565b61201a600a612c0083612764565b50505050565b8173ffffffffffffffffffffffffffffffffffffffff168373ffffffffffffffffffffffffffffffffffffffff161415801561205c5750600081115b1561221457600073ffffffffffffffffffffffffffffffffffffffff168373ffffffffffffffffffffffffffffffffffffffff161461213a576000806120e3600960008773ffffffffffffffffffffffffffffffffffffffff1673ffffffffffffffffffffffffffffffffffffffff168152602001908152602001600020612c0085612764565b915091508473ffffffffffffffffffffffffffffffffffffffff167fdec2bacdd2f05b59de34da9b523dff8be42e5e38e818c82fdb0bae774387a724838360405161212f929190613e5b565b60405180910390a250505b600073ffffffffffffffffffffffffffffffffffffffff168273ffffffffffffffffffffffffffffffffffffffff1614612213576000806121bc600960008673ffffffffffffffffffffffffffffffffffffffff1673ffffffffffffffffffffffffffffffffffffffff16815260200190815260200160002061274e85612764565b915091508373ffffffffffffffffffffffffffffffffffffffff167fdec2bacdd2f05b59de34da9b523dff8be42e5e38e818c82fdb0bae774387a7248383604051612208929190613e5b565b60405180910390a250505b5b505050565b6000828260405160200161222e929190613efc565b60405160208183030381529060405280519060200120905092915050565b6000807f7fffffffffffffffffffffffffffffff5d576e7357a4501ddfe92f46681b20a08360001c1115612287576000600391509150612325565b6000600187878787604051600081526020016040526040516122ac9493929190613f33565b6020604051602081039080840390855afa1580156122ce573d6000803e3d6000fd5b505050602060405103519050600073ffffffffffffffffffffffffffffffffffffffff168173ffffffffffffffffffffffffffffffffffffffff160361231c57600060019250925050612325565b80600092509250505b94509492505050565b6000600481111561234257612341613f78565b5b81600481111561235557612354613f78565b5b0315612491576001600481111561236f5761236e613f78565b5b81600481111561238257612381613f78565b5b036123c2576040517f08c379a00000000000000000000000000000000000000000000000000000000081526004016123b990613ff3565b60405180910390fd5b600260048111156123d6576123d5613f78565b5b8160048111156123e9576123e8613f78565b5b03612429576040517f08c379a00000000000000000000000000000000000000000000000000000000081526004016124209061405f565b60405180910390fd5b6003600481111561243d5761243c613f78565b5b8160048111156124505761244f613f78565b5b03612490576040517f08c379a0000000000000000000000000000000000000000000000000000000008152600401612487906140f1565b60405180910390fd5b5b50565b6001816000016000828254019250508190555050565b505050565b6124ba838383612c16565b6124d56124c6846108a3565b6124cf846108a3565b83612020565b505050565b600080600090506000608084901c11156124fc57608083901c92506080810190505b6000604084901c111561251757604083901c92506040810190505b6000602084901c111561253257602083901c92506020810190505b6000601084901c111561254d57601083901c92506010810190505b6000600884901c111561256857600883901c92506008810190505b6000600484901c111561258357600483901c92506004810190505b6000600284901c111561259e57600283901c92506002810190505b6000600184901c11156125b2576001810190505b80915050919050565b60008183106125ca57816125cc565b825b905092915050565b600073ffffffffffffffffffffffffffffffffffffffff168273ffffffffffffffffffffffffffffffffffffffff1603612643576040517f08c379a000000000000000000000000000000000000000000000000000000000815260040161263a9061415d565b60405180910390fd5b61264f60008383611d96565b8060026000828254612661919061337d565b92505081905550806000808473ffffffffffffffffffffffffffffffffffffffff1673ffffffffffffffffffffffffffffffffffffffff168152602001908152602001600020600082825401925050819055508173ffffffffffffffffffffffffffffffffffffffff16600073ffffffffffffffffffffffffffffffffffffffff167fddf252ad1be2c89b69c2b068fc378daa952ba7f163c4a11628f55a4df523b3ef836040516127129190612e94565b60405180910390a361272660008383611dae565b5050565b60007bffffffffffffffffffffffffffffffffffffffffffffffffffffffff905090565b6000818361275c919061337d565b905092915050565b60008060008580549050905060008082146128335761278f8760018461278a919061341d565b611ef1565b6040518060400160405290816000820160009054906101000a900463ffffffff1663ffffffff1663ffffffff1681526020016000820160049054906101000a90047bffffffffffffffffffffffffffffffffffffffffffffffffffffffff167bffffffffffffffffffffffffffffffffffffffffffffffffffffffff167bffffffffffffffffffffffffffffffffffffffffffffffffffffffff168152505061286f565b6040518060400160405280600063ffffffff16815260200160007bffffffffffffffffffffffffffffffffffffffffffffffffffffffff168152505b905080602001517bffffffffffffffffffffffffffffffffffffffffffffffffffffffff1693506128a484868863ffffffff16565b92506000821180156128bf575043816000015163ffffffff16145b15612939576128cd83612c1b565b6128e3886001856128de919061341d565b611ef1565b60000160046101000a8154817bffffffffffffffffffffffffffffffffffffffffffffffffffffffff02191690837bffffffffffffffffffffffffffffffffffffffffffffffffffffffff160217905550612a29565b86604051806040016040528061294e43611b69565b63ffffffff16815260200161296286612c1b565b7bffffffffffffffffffffffffffffffffffffffffffffffffffffffff168152509080600181540180825580915050600190039060005260206000200160009091909190915060008201518160000160006101000a81548163ffffffff021916908363ffffffff16021790555060208201518160000160046101000a8154817bffffffffffffffffffffffffffffffffffffffffffffffffffffffff02191690837bffffffffffffffffffffffffffffffffffffffffffffffffffffffff16021790555050505b5050935093915050565b600073ffffffffffffffffffffffffffffffffffffffff168273ffffffffffffffffffffffffffffffffffffffff1603612aa2576040517f08c379a0000000000000000000000000000000000000000000000000000000008152600401612a99906141ef565b60405180910390fd5b612aae82600083611d96565b60008060008473ffffffffffffffffffffffffffffffffffffffff1673ffffffffffffffffffffffffffffffffffffffff16815260200190815260200160002054905081811015612b34576040517f08c379a0000000000000000000000000000000000000000000000000000000008152600401612b2b90614281565b60405180910390fd5b8181036000808573ffffffffffffffffffffffffffffffffffffffff1673ffffffffffffffffffffffffffffffffffffffff1681526020019081526020016000208190555081600260008282540392505081905550600073ffffffffffffffffffffffffffffffffffffffff168373ffffffffffffffffffffffffffffffffffffffff167fddf252ad1be2c89b69c2b068fc378daa952ba7f163c4a11628f55a4df523b3ef84604051612be79190612e94565b60405180910390a3612bfb83600084611dae565b505050565b60008183612c0e919061341d565b905092915050565b505050565b60007bffffffffffffffffffffffffffffffffffffffffffffffffffffffff8016821115612c7e576040517f08c379a0000000000000000000000000000000000000000000000000000000008152600401612c7590614313565b60405180910390fd5b819050919050565b6040518060400160405280600063ffffffff16815260200160007bffffffffffffffffffffffffffffffffffffffffffffffffffffffff1681525090565b600081519050919050565b600082825260208201905092915050565b60005b83811015612cfe578082015181840152602081019050612ce3565b60008484015250505050565b6000601f19601f8301169050919050565b6000612d2682612cc4565b612d308185612ccf565b9350612d40818560208601612ce0565b612d4981612d0a565b840191505092915050565b60006020820190508181036000830152612d6e8184612d1b565b905092915050565b600080fd5b600073ffffffffffffffffffffffffffffffffffffffff82169050919050565b6000612da682612d7b565b9050919050565b612db681612d9b565b8114612dc157600080fd5b50565b600081359050612dd381612dad565b92915050565b6000819050919050565b612dec81612dd9565b8114612df757600080fd5b50565b600081359050612e0981612de3565b92915050565b60008060408385031215612e2657612e25612d76565b5b6000612e3485828601612dc4565b9250506020612e4585828601612dfa565b9150509250929050565b60008115159050919050565b612e6481612e4f565b82525050565b6000602082019050612e7f6000830184612e5b565b92915050565b612e8e81612dd9565b82525050565b6000602082019050612ea96000830184612e85565b92915050565b600080600060608486031215612ec857612ec7612d76565b5b6000612ed686828701612dc4565b9350506020612ee786828701612dc4565b9250506040612ef886828701612dfa565b9150509250925092565b600060ff82169050919050565b612f1881612f02565b82525050565b6000602082019050612f336000830184612f0f565b92915050565b6000819050919050565b612f4c81612f39565b82525050565b6000602082019050612f676000830184612f43565b92915050565b600060208284031215612f8357612f82612d76565b5b6000612f9184828501612dfa565b91505092915050565b600060208284031215612fb057612faf612d76565b5b6000612fbe84828501612dc4565b91505092915050565b612fd081612d9b565b82525050565b6000602082019050612feb6000830184612fc7565b92915050565b600063ffffffff82169050919050565b61300a81612ff1565b82525050565b60006020820190506130256000830184613001565b92915050565b61303481612f02565b811461303f57600080fd5b50565b6000813590506130518161302b565b92915050565b61306081612f39565b811461306b57600080fd5b50565b60008135905061307d81613057565b92915050565b60008060008060008060c087890312156130a05761309f612d76565b5b60006130ae89828a01612dc4565b96505060206130bf89828a01612dfa565b95505060406130d089828a01612dfa565b94505060606130e189828a01613042565b93505060806130f289828a0161306e565b92505060a061310389828a0161306e565b9150509295509295509295565b600080600080600080600060e0888a03121561312f5761312e612d76565b5b600061313d8a828b01612dc4565b975050602061314e8a828b01612dc4565b965050604061315f8a828b01612dfa565b95505060606131708a828b01612dfa565b94505060806131818a828b01613042565b93505060a06131928a828b0161306e565b92505060c06131a38a828b0161306e565b91505092959891949750929550565b600080604083850312156131c9576131c8612d76565b5b60006131d785828601612dc4565b92505060206131e885828601612dc4565b9150509250929050565b6131fb81612ff1565b811461320657600080fd5b50565b600081359050613218816131f2565b92915050565b6000806040838503121561323557613234612d76565b5b600061324385828601612dc4565b925050602061325485828601613209565b9150509250929050565b61326781612ff1565b82525050565b60007bffffffffffffffffffffffffffffffffffffffffffffffffffffffff82169050919050565b61329e8161326d565b82525050565b6040820160008201516132ba600085018261325e565b5060208201516132cd6020850182613295565b50505050565b60006040820190506132e860008301846132a4565b92915050565b7f4e487b7100000000000000000000000000000000000000000000000000000000600052602260045260246000fd5b6000600282049050600182168061333557607f821691505b602082108103613348576133476132ee565b5b50919050565b7f4e487b7100000000000000000000000000000000000000000000000000000000600052601160045260246000fd5b600061338882612dd9565b915061339383612dd9565b92508282019050808211156133ab576133aa61334e565b5b92915050565b7f4552433230566f7465733a20626c6f636b206e6f7420796574206d696e656400600082015250565b60006133e7601f83612ccf565b91506133f2826133b1565b602082019050919050565b60006020820190508181036000830152613416816133da565b9050919050565b600061342882612dd9565b915061343383612dd9565b925082820390508181111561344b5761344a61334e565b5b92915050565b7f4e487b7100000000000000000000000000000000000000000000000000000000600052603260045260246000fd5b7f45524332303a2064656372656173656420616c6c6f77616e63652062656c6f7760008201527f207a65726f000000000000000000000000000000000000000000000000000000602082015250565b60006134dc602583612ccf565b91506134e782613480565b604082019050919050565b6000602082019050818103600083015261350b816134cf565b9050919050565b7f4552433230566f7465733a207369676e61747572652065787069726564000000600082015250565b6000613548601d83612ccf565b915061355382613512565b602082019050919050565b600060208201905081810360008301526135778161353b565b9050919050565b60006080820190506135936000830187612f43565b6135a06020830186612fc7565b6135ad6040830185612e85565b6135ba6060830184612e85565b95945050505050565b7f4552433230566f7465733a20696e76616c6964206e6f6e636500000000000000600082015250565b60006135f9601983612ccf565b9150613604826135c3565b602082019050919050565b60006020820190508181036000830152613628816135ec565b9050919050565b7f45524332305065726d69743a206578706972656420646561646c696e65000000600082015250565b6000613665601d83612ccf565b91506136708261362f565b602082019050919050565b6000602082019050818103600083015261369481613658565b9050919050565b600060c0820190506136b06000830189612f43565b6136bd6020830188612fc7565b6136ca6040830187612fc7565b6136d76060830186612e85565b6136e46080830185612e85565b6136f160a0830184612e85565b979650505050505050565b7f45524332305065726d69743a20696e76616c6964207369676e61747572650000600082015250565b6000613732601e83612ccf565b915061373d826136fc565b602082019050919050565b6000602082019050818103600083015261376181613725565b9050919050565b7f4f776e61626c653a206e6577206f776e657220697320746865207a65726f206160008201527f6464726573730000000000000000000000000000000000000000000000000000602082015250565b60006137c4602683612ccf565b91506137cf82613768565b604082019050919050565b600060208201905081810360008301526137f3816137b7565b9050919050565b7f45524332303a20617070726f76652066726f6d20746865207a65726f2061646460008201527f7265737300000000000000000000000000000000000000000000000000000000602082015250565b6000613856602483612ccf565b9150613861826137fa565b604082019050919050565b6000602082019050818103600083015261388581613849565b9050919050565b7f45524332303a20617070726f766520746f20746865207a65726f20616464726560008201527f7373000000000000000000000000000000000000000000000000000000000000602082015250565b60006138e8602283612ccf565b91506138f38261388c565b604082019050919050565b60006020820190508181036000830152613917816138db565b9050919050565b7f45524332303a20696e73756666696369656e7420616c6c6f77616e6365000000600082015250565b6000613954601d83612ccf565b915061395f8261391e565b602082019050919050565b6000602082019050818103600083015261398381613947565b9050919050565b7f45524332303a207472616e736665722066726f6d20746865207a65726f20616460008201527f6472657373000000000000000000000000000000000000000000000000000000602082015250565b60006139e6602583612ccf565b91506139f18261398a565b604082019050919050565b60006020820190508181036000830152613a15816139d9565b9050919050565b7f45524332303a207472616e7366657220746f20746865207a65726f206164647260008201527f6573730000000000000000000000000000000000000000000000000000000000602082015250565b6000613a78602383612ccf565b9150613a8382613a1c565b604082019050919050565b60006020820190508181036000830152613aa781613a6b565b9050919050565b7f45524332303a207472616e7366657220616d6f756e742065786365656473206260008201527f616c616e63650000000000000000000000000000000000000000000000000000602082015250565b6000613b0a602683612ccf565b9150613b1582613aae565b604082019050919050565b60006020820190508181036000830152613b3981613afd565b9050919050565b7f4f776e61626c653a2063616c6c6572206973206e6f7420746865206f776e6572600082015250565b6000613b76602083612ccf565b9150613b8182613b40565b602082019050919050565b60006020820190508181036000830152613ba581613b69565b9050919050565b7f5061757361626c653a2070617573656400000000000000000000000000000000600082015250565b6000613be2601083612ccf565b9150613bed82613bac565b602082019050919050565b60006020820190508181036000830152613c1181613bd5565b9050919050565b7f53616665436173743a2076616c756520646f65736e27742066697420696e203360008201527f3220626974730000000000000000000000000000000000000000000000000000602082015250565b6000613c74602683612ccf565b9150613c7f82613c18565b604082019050919050565b60006020820190508181036000830152613ca381613c67565b9050919050565b600060a082019050613cbf6000830188612f43565b613ccc6020830187612f43565b613cd96040830186612f43565b613ce66060830185612e85565b613cf36080830184612fc7565b9695505050505050565b7f4e487b7100000000000000000000000000000000000000000000000000000000600052601260045260246000fd5b6000613d3782612dd9565b9150613d4283612dd9565b925082613d5257613d51613cfd565b5b828204905092915050565b7f5061757361626c653a206e6f7420706175736564000000000000000000000000600082015250565b6000613d93601483612ccf565b9150613d9e82613d5d565b602082019050919050565b60006020820190508181036000830152613dc281613d86565b9050919050565b7f4552433230566f7465733a20746f74616c20737570706c79207269736b73206f60008201527f766572666c6f77696e6720766f74657300000000000000000000000000000000602082015250565b6000613e25603083612ccf565b9150613e3082613dc9565b604082019050919050565b60006020820190508181036000830152613e5481613e18565b9050919050565b6000604082019050613e706000830185612e85565b613e7d6020830184612e85565b9392505050565b600081905092915050565b7f1901000000000000000000000000000000000000000000000000000000000000600082015250565b6000613ec5600283613e84565b9150613ed082613e8f565b600282019050919050565b6000819050919050565b613ef6613ef182612f39565b613edb565b82525050565b6000613f0782613eb8565b9150613f138285613ee5565b602082019150613f238284613ee5565b6020820191508190509392505050565b6000608082019050613f486000830187612f43565b613f556020830186612f0f565b613f626040830185612f43565b613f6f6060830184612f43565b95945050505050565b7f4e487b7100000000000000000000000000000000000000000000000000000000600052602160045260246000fd5b7f45434453413a20696e76616c6964207369676e61747572650000000000000000600082015250565b6000613fdd601883612ccf565b9150613fe882613fa7565b602082019050919050565b6000602082019050818103600083015261400c81613fd0565b9050919050565b7f45434453413a20696e76616c6964207369676e6174757265206c656e67746800600082015250565b6000614049601f83612ccf565b915061405482614013565b602082019050919050565b600060208201905081810360008301526140788161403c565b9050919050565b7f45434453413a20696e76616c6964207369676e6174757265202773272076616c60008201527f7565000000000000000000000000000000000000000000000000000000000000602082015250565b60006140db602283612ccf565b91506140e68261407f565b604082019050919050565b6000602082019050818103600083015261410a816140ce565b9050919050565b7f45524332303a206d696e7420746f20746865207a65726f206164647265737300600082015250565b6000614147601f83612ccf565b915061415282614111565b602082019050919050565b600060208201905081810360008301526141768161413a565b9050919050565b7f45524332303a206275726e2066726f6d20746865207a65726f2061646472657360008201527f7300000000000000000000000000000000000000000000000000000000000000602082015250565b60006141d9602183612ccf565b91506141e48261417d565b604082019050919050565b60006020820190508181036000830152614208816141cc565b9050919050565b7f45524332303a206275726e20616d6f756e7420657863656564732062616c616e60008201527f6365000000000000000000000000000000000000000000000000000000000000602082015250565b600061426b602283612ccf565b91506142768261420f565b604082019050919050565b6000602082019050818103600083015261429a8161425e565b9050919050565b7f53616665436173743a2076616c756520646f65736e27742066697420696e203260008201527f3234206269747300000000000000000000000000000000000000000000000000602082015250565b60006142fd602783612ccf565b9150614308826142a1565b604082019050919050565b6000602082019050818103600083015261432c816142f0565b905091905056fea26469706673582212201e07e1f9c571623fb4bf815ba519810066382e0fecc6c295ddef89199f5d137764736f6c63430008120033",
  "linkReferences": {},
  "deployedLinkReferences": {}
}